{
  "contractName": "Lastpay",
  "abi": [
    {
      "constant": true,
      "inputs": [],
      "name": "candidatesCount",
      "outputs": [
        {
          "name": "",
          "type": "uint256"
        }
      ],
      "payable": false,
      "stateMutability": "view",
      "type": "function"
    },
    {
      "constant": true,
      "inputs": [
        {
          "name": "",
          "type": "uint256"
        }
      ],
      "name": "candidates",
      "outputs": [
        {
          "name": "id",
          "type": "uint256"
        },
        {
          "name": "name",
          "type": "string"
        },
        {
          "name": "voteCount",
          "type": "uint256"
        }
      ],
      "payable": false,
      "stateMutability": "view",
      "type": "function"
    },
    {
      "constant": true,
      "inputs": [],
      "name": "closingTime",
      "outputs": [
        {
          "name": "",
          "type": "uint256"
        }
      ],
      "payable": false,
      "stateMutability": "view",
      "type": "function"
    },
    {
      "constant": true,
      "inputs": [
        {
          "name": "",
          "type": "address"
        }
      ],
      "name": "voters",
      "outputs": [
        {
          "name": "",
          "type": "bool"
        }
      ],
      "payable": false,
      "stateMutability": "view",
      "type": "function"
    },
    {
      "constant": true,
      "inputs": [],
      "name": "winner",
      "outputs": [
        {
          "name": "addr",
          "type": "address"
        }
      ],
      "payable": false,
      "stateMutability": "view",
      "type": "function"
    },
    {
      "inputs": [],
      "payable": false,
      "stateMutability": "nonpayable",
      "type": "constructor"
    },
    {
      "anonymous": false,
      "inputs": [
        {
          "indexed": false,
          "name": "description",
          "type": "string"
        }
      ],
      "name": "LogInfo",
      "type": "event"
    },
    {
      "anonymous": false,
      "inputs": [
        {
          "indexed": true,
          "name": "_candidateId",
          "type": "uint256"
        }
      ],
      "name": "votedEvent",
      "type": "event"
    },
    {
      "constant": false,
      "inputs": [],
      "name": "payLastAddr",
      "outputs": [
        {
          "name": "",
          "type": "bool"
        }
      ],
      "payable": false,
      "stateMutability": "nonpayable",
      "type": "function"
    },
    {
      "constant": false,
      "inputs": [],
      "name": "payFound",
      "outputs": [
        {
          "name": "success",
          "type": "bool"
        }
      ],
      "payable": true,
      "stateMutability": "payable",
      "type": "function"
    },
    {
      "constant": false,
      "inputs": [
        {
          "name": "myid",
          "type": "bytes32"
        },
        {
          "name": "result",
          "type": "string"
        }
      ],
      "name": "__callback",
      "outputs": [],
      "payable": false,
      "stateMutability": "nonpayable",
      "type": "function"
    },
    {
      "constant": false,
      "inputs": [
        {
          "name": "id",
          "type": "bytes32"
        },
        {
          "name": "result",
          "type": "string"
        },
        {
          "name": "proof",
          "type": "bytes"
        }
      ],
      "name": "__callback",
      "outputs": [],
      "payable": false,
      "stateMutability": "nonpayable",
      "type": "function"
    },
    {
      "constant": false,
      "inputs": [
        {
          "name": "_candidateId",
          "type": "uint256"
        }
      ],
      "name": "vote",
      "outputs": [],
      "payable": false,
      "stateMutability": "nonpayable",
      "type": "function"
    }
  ],
  "bytecode": "0x6080604052603c6007553480156200001657600080fd5b50620000666040805190810160405280600b81526020017f43616e6469646174652031000000000000000000000000000000000000000000815250620000bb640100000000026401000000009004565b620000b56040805190810160405280600b81526020017f43616e6469646174652032000000000000000000000000000000000000000000815250620000bb640100000000026401000000009004565b620001e9565b60096000815480929190600101919050555060606040519081016040528060095481526020018281526020016000815250600560006009548152602001908152602001600020600082015181600001556020820151816001019080519060200190620001299291906200013a565b506040820151816002015590505050565b828054600181600116156101000203166002900490600052602060002090601f016020900481019282601f106200017d57805160ff1916838001178555620001ae565b82800160010185558215620001ae579182015b82811115620001ad57825182559160200191906001019062000190565b5b509050620001bd9190620001c1565b5090565b620001e691905b80821115620001e2576000816000905550600101620001c8565b5090565b90565b611ca680620001f96000396000f3006080604052600436106100a4576000357c0100000000000000000000000000000000000000000000000000000000900463ffffffff1680630121b93f146100a957806327dc297e146100d65780632d35a8a21461014d5780633477ee2e1461017857806338bbfa501461022c5780634b6753bc146102e95780638c28226414610314578063a3ec138d14610336578063d2d232f614610391578063dfbf53ae146103c0575b600080fd5b3480156100b557600080fd5b506100d460048036038101908080359060200190929190505050610417565b005b3480156100e257600080fd5b5061014b6004803603810190808035600019169060200190929190803590602001908201803590602001908080601f016020809104026020016040519081016040528093929190818152602001838380828437820191505050505050919291929050505061053b565b005b34801561015957600080fd5b5061016261057e565b6040518082815260200191505060405180910390f35b34801561018457600080fd5b506101a360048036038101908080359060200190929190505050610584565b6040518084815260200180602001838152602001828103825284818151815260200191508051906020019080838360005b838110156101ef5780820151818401526020810190506101d4565b50505050905090810190601f16801561021c5780820380516001836020036101000a031916815260200191505b5094505050505060405180910390f35b34801561023857600080fd5b506102e76004803603810190808035600019169060200190929190803590602001908201803590602001908080601f0160208091040260200160405190810160405280939291908181526020018383808284378201915050505050509192919290803590602001908201803590602001908080601f0160208091040260200160405190810160405280939291908181526020018383808284378201915050505050509192919290505050610646565b005b3480156102f557600080fd5b506102fe610711565b6040518082815260200191505060405180910390f35b61031c610717565b604051808215151515815260200191505060405180910390f35b34801561034257600080fd5b50610377600480360381019080803573ffffffffffffffffffffffffffffffffffffffff169060200190929190505050610968565b604051808215151515815260200191505060405180910390f35b34801561039d57600080fd5b506103a6610988565b604051808215151515815260200191505060405180910390f35b3480156103cc57600080fd5b506103d5610a14565b604051808273ffffffffffffffffffffffffffffffffffffffff1673ffffffffffffffffffffffffffffffffffffffff16815260200191505060405180910390f35b600a60003373ffffffffffffffffffffffffffffffffffffffff1673ffffffffffffffffffffffffffffffffffffffff16815260200190815260200160002060009054906101000a900460ff1615151561047057600080fd5b60008111801561048257506009548111155b151561048d57600080fd5b6001600a60003373ffffffffffffffffffffffffffffffffffffffff1673ffffffffffffffffffffffffffffffffffffffff16815260200190815260200160002060006101000a81548160ff0219169083151502179055506005600082815260200190815260200160002060020160008154809291906001019190505550807ffff3c900d938d21d0990d786e819f29b8d05c1ef587b462b939609625b684b1660405160405180910390a250565b61057a828260006040519080825280601f01601f1916602001820160405280156105745781602001602082028038833980820191505090505b50610646565b5050565b60095481565b6005602052806000526040600020600091509050806000015490806001018054600181600116156101000203166002900480601f0160208091040260200160405190810160405280929190818152602001828054600181600116156101000203166002900480156106365780601f1061060b57610100808354040283529160200191610636565b820191906000526020600020905b81548152906001019060200180831161061957829003601f168201915b5050505050908060020154905083565b61064e610a40565b73ffffffffffffffffffffffffffffffffffffffff163373ffffffffffffffffffffffffffffffffffffffff161415156106f0576040517f08c379a00000000000000000000000000000000000000000000000000000000081526004018080602001828103825260068152602001807f686572652031000000000000000000000000000000000000000000000000000081525060200191505060405180910390fd5b600854600019168360001916141561070c5761070a610988565b505b505050565b60075481565b600033600660000160006101000a81548173ffffffffffffffffffffffffffffffffffffffff021916908373ffffffffffffffffffffffffffffffffffffffff1602179055503073ffffffffffffffffffffffffffffffffffffffff16316107b36040805190810160405280600381526020017f55524c0000000000000000000000000000000000000000000000000000000000815250610d9e565b1115610876577ffee95ecae0c8f7f0743ec0ad254c78ab75e5ecca9f1ddcd9f11f9a98124b96bc60405180806020018281038252604b8152602001807f4f7261636c697a6520717565727920776173204e4f542073656e742c20706c6581526020017f6173652061646420736f6d652045544820746f20636f76657220666f7220746881526020017f652071756572792066656500000000000000000000000000000000000000000081525060600191505060405180910390a160009050610965565b7ffee95ecae0c8f7f0743ec0ad254c78ab75e5ecca9f1ddcd9f11f9a98124b96bc6040518080602001828103825260358152602001807f4f7261636c697a65207175657279207761732073656e742c207374616e64696e81526020017f6720627920666f722074686520616e737765722e2e000000000000000000000081525060400191505060405180910390a16109566007546040805190810160405280600381526020017f55524c0000000000000000000000000000000000000000000000000000000000815250602060405190810160405280600081525061116e565b60088160001916905550600190505b90565b600a6020528060005260406000206000915054906101000a900460ff1681565b6000600660000160009054906101000a900473ffffffffffffffffffffffffffffffffffffffff1673ffffffffffffffffffffffffffffffffffffffff166108fc3073ffffffffffffffffffffffffffffffffffffffff16319081150290604051600060405180830381858888f19350505050158015610a0c573d6000803e3d6000fd5b506001905090565b60068060000160009054906101000a900473ffffffffffffffffffffffffffffffffffffffff16905081565b6000806000809054906101000a900473ffffffffffffffffffffffffffffffffffffffff1673ffffffffffffffffffffffffffffffffffffffff161480610ab057506000610aae6000809054906101000a900473ffffffffffffffffffffffffffffffffffffffff16611710565b145b15610ac157610abf600061171b565b505b6000809054906101000a900473ffffffffffffffffffffffffffffffffffffffff1673ffffffffffffffffffffffffffffffffffffffff166338cc48316040518163ffffffff167c0100000000000000000000000000000000000000000000000000000000028152600401602060405180830381600087803b158015610b4657600080fd5b505af1158015610b5a573d6000803e3d6000fd5b505050506040513d6020811015610b7057600080fd5b810190808051906020019092919050505073ffffffffffffffffffffffffffffffffffffffff16600160009054906101000a900473ffffffffffffffffffffffffffffffffffffffff1673ffffffffffffffffffffffffffffffffffffffff16141515610cd8576000809054906101000a900473ffffffffffffffffffffffffffffffffffffffff1673ffffffffffffffffffffffffffffffffffffffff166338cc48316040518163ffffffff167c0100000000000000000000000000000000000000000000000000000000028152600401602060405180830381600087803b158015610c5c57600080fd5b505af1158015610c70573d6000803e3d6000fd5b505050506040513d6020811015610c8657600080fd5b8101908080519060200190929190505050600160006101000a81548173ffffffffffffffffffffffffffffffffffffffff021916908373ffffffffffffffffffffffffffffffffffffffff1602179055505b600160009054906101000a900473ffffffffffffffffffffffffffffffffffffffff1673ffffffffffffffffffffffffffffffffffffffff1663c281d19e6040518163ffffffff167c0100000000000000000000000000000000000000000000000000000000028152600401602060405180830381600087803b158015610d5e57600080fd5b505af1158015610d72573d6000803e3d6000fd5b505050506040513d6020811015610d8857600080fd5b8101908080519060200190929190505050905090565b6000806000809054906101000a900473ffffffffffffffffffffffffffffffffffffffff1673ffffffffffffffffffffffffffffffffffffffff161480610e0e57506000610e0c6000809054906101000a900473ffffffffffffffffffffffffffffffffffffffff16611710565b145b15610e1f57610e1d600061171b565b505b6000809054906101000a900473ffffffffffffffffffffffffffffffffffffffff1673ffffffffffffffffffffffffffffffffffffffff166338cc48316040518163ffffffff167c0100000000000000000000000000000000000000000000000000000000028152600401602060405180830381600087803b158015610ea457600080fd5b505af1158015610eb8573d6000803e3d6000fd5b505050506040513d6020811015610ece57600080fd5b810190808051906020019092919050505073ffffffffffffffffffffffffffffffffffffffff16600160009054906101000a900473ffffffffffffffffffffffffffffffffffffffff1673ffffffffffffffffffffffffffffffffffffffff16141515611036576000809054906101000a900473ffffffffffffffffffffffffffffffffffffffff1673ffffffffffffffffffffffffffffffffffffffff166338cc48316040518163ffffffff167c0100000000000000000000000000000000000000000000000000000000028152600401602060405180830381600087803b158015610fba57600080fd5b505af1158015610fce573d6000803e3d6000fd5b505050506040513d6020811015610fe457600080fd5b8101908080519060200190929190505050600160006101000a81548173ffffffffffffffffffffffffffffffffffffffff021916908373ffffffffffffffffffffffffffffffffffffffff1602179055505b600160009054906101000a900473ffffffffffffffffffffffffffffffffffffffff1673ffffffffffffffffffffffffffffffffffffffff1663524f3889836040518263ffffffff167c01000000000000000000000000000000000000000000000000000000000281526004018080602001828103825283818151815260200191508051906020019080838360005b838110156110e05780820151818401526020810190506110c5565b50505050905090810190601f16801561110d5780820380516001836020036101000a031916815260200191505b5092505050602060405180830381600087803b15801561112c57600080fd5b505af1158015611140573d6000803e3d6000fd5b505050506040513d602081101561115657600080fd5b81019080805190602001909291905050509050919050565b60008060008060009054906101000a900473ffffffffffffffffffffffffffffffffffffffff1673ffffffffffffffffffffffffffffffffffffffff1614806111e0575060006111de6000809054906101000a900473ffffffffffffffffffffffffffffffffffffffff16611710565b145b156111f1576111ef600061171b565b505b6000809054906101000a900473ffffffffffffffffffffffffffffffffffffffff1673ffffffffffffffffffffffffffffffffffffffff166338cc48316040518163ffffffff167c0100000000000000000000000000000000000000000000000000000000028152600401602060405180830381600087803b15801561127657600080fd5b505af115801561128a573d6000803e3d6000fd5b505050506040513d60208110156112a057600080fd5b810190808051906020019092919050505073ffffffffffffffffffffffffffffffffffffffff16600160009054906101000a900473ffffffffffffffffffffffffffffffffffffffff1673ffffffffffffffffffffffffffffffffffffffff16141515611408576000809054906101000a900473ffffffffffffffffffffffffffffffffffffffff1673ffffffffffffffffffffffffffffffffffffffff166338cc48316040518163ffffffff167c0100000000000000000000000000000000000000000000000000000000028152600401602060405180830381600087803b15801561138c57600080fd5b505af11580156113a0573d6000803e3d6000fd5b505050506040513d60208110156113b657600080fd5b8101908080519060200190929190505050600160006101000a81548173ffffffffffffffffffffffffffffffffffffffff021916908373ffffffffffffffffffffffffffffffffffffffff1602179055505b600160009054906101000a900473ffffffffffffffffffffffffffffffffffffffff1673ffffffffffffffffffffffffffffffffffffffff1663524f3889856040518263ffffffff167c01000000000000000000000000000000000000000000000000000000000281526004018080602001828103825283818151815260200191508051906020019080838360005b838110156114b2578082015181840152602081019050611497565b50505050905090810190601f1680156114df5780820380516001836020036101000a031916815260200191505b5092505050602060405180830381600087803b1580156114fe57600080fd5b505af1158015611512573d6000803e3d6000fd5b505050506040513d602081101561152857600080fd5b8101908080519060200190929190505050905062030d403a02670de0b6b3a76400000181111561155e5760006001029150611708565b600160009054906101000a900473ffffffffffffffffffffffffffffffffffffffff1673ffffffffffffffffffffffffffffffffffffffff1663adf59f99828787876040518563ffffffff167c0100000000000000000000000000000000000000000000000000000000028152600401808481526020018060200180602001838103835285818151815260200191508051906020019080838360005b838110156116155780820151818401526020810190506115fa565b50505050905090810190601f1680156116425780820380516001836020036101000a031916815260200191505b50838103825284818151815260200191508051906020019080838360005b8381101561167b578082015181840152602081019050611660565b50505050905090810190601f1680156116a85780820380516001836020036101000a031916815260200191505b50955050505050506020604051808303818588803b1580156116c957600080fd5b505af11580156116dd573d6000803e3d6000fd5b50505050506040513d60208110156116f457600080fd5b810190808051906020019092919050505091505b509392505050565b6000813b9050919050565b600061172561172c565b9050919050565b60008061174c731d3b2638a7cc9f2cb3d298a3da7a90b67e5506ed611710565b11156117ed57731d3b2638a7cc9f2cb3d298a3da7a90b67e5506ed6000806101000a81548173ffffffffffffffffffffffffffffffffffffffff021916908373ffffffffffffffffffffffffffffffffffffffff1602179055506117e46040805190810160405280600b81526020017f6574685f6d61696e6e6574000000000000000000000000000000000000000000815250611bbb565b60019050611bb8565b600061180c73c03a2615d5efaf5f49f60b7bb6583eaec212fdf1611710565b11156118ad5773c03a2615d5efaf5f49f60b7bb6583eaec212fdf16000806101000a81548173ffffffffffffffffffffffffffffffffffffffff021916908373ffffffffffffffffffffffffffffffffffffffff1602179055506118a46040805190810160405280600c81526020017f6574685f726f707374656e330000000000000000000000000000000000000000815250611bbb565b60019050611bb8565b60006118cc73b7a07bcf2ba2f2703b24c0691b5278999c59ac7e611710565b111561196d5773b7a07bcf2ba2f2703b24c0691b5278999c59ac7e6000806101000a81548173ffffffffffffffffffffffffffffffffffffffff021916908373ffffffffffffffffffffffffffffffffffffffff1602179055506119646040805190810160405280600981526020017f6574685f6b6f76616e0000000000000000000000000000000000000000000000815250611bbb565b60019050611bb8565b600061198c73146500cfd35b22e4a392fe0adc06de1a1368ed48611710565b1115611a2d5773146500cfd35b22e4a392fe0adc06de1a1368ed486000806101000a81548173ffffffffffffffffffffffffffffffffffffffff021916908373ffffffffffffffffffffffffffffffffffffffff160217905550611a246040805190810160405280600b81526020017f6574685f72696e6b656279000000000000000000000000000000000000000000815250611bbb565b60019050611bb8565b6000611a4c736f485c8bf6fc43ea212e93bbf8ce046c7f1cb475611710565b1115611aaf57736f485c8bf6fc43ea212e93bbf8ce046c7f1cb4756000806101000a81548173ffffffffffffffffffffffffffffffffffffffff021916908373ffffffffffffffffffffffffffffffffffffffff16021790555060019050611bb8565b6000611ace7320e12a1f859b3feae5fb2a0a32c18f5a65555bbf611710565b1115611b31577320e12a1f859b3feae5fb2a0a32c18f5a65555bbf6000806101000a81548173ffffffffffffffffffffffffffffffffffffffff021916908373ffffffffffffffffffffffffffffffffffffffff16021790555060019050611bb8565b6000611b507351efaf4c8b3c9afbd5ab9f4bbc82784ab6ef8faa611710565b1115611bb3577351efaf4c8b3c9afbd5ab9f4bbc82784ab6ef8faa6000806101000a81548173ffffffffffffffffffffffffffffffffffffffff021916908373ffffffffffffffffffffffffffffffffffffffff16021790555060019050611bb8565b600090505b90565b8060029080519060200190611bd1929190611bd5565b5050565b828054600181600116156101000203166002900490600052602060002090601f016020900481019282601f10611c1657805160ff1916838001178555611c44565b82800160010185558215611c44579182015b82811115611c43578251825591602001919060010190611c28565b5b509050611c519190611c55565b5090565b611c7791905b80821115611c73576000816000905550600101611c5b565b5090565b905600a165627a7a72305820abae8d4017055b7feca05d4bc454fda7864e29196aa9d343e2a7be78a4e0a2550029",
  "source": "pragma solidity ^0.4.24;\r\n//import { increaseTimeTo, duration } from './helpers/increaseTime';\r\n//import latestTime from './helpers/latestTime';\r\n//import \"installed_contracts/oraclize-api/contracts/usingOraclize.sol\";\r\nimport \"./usingOraclize.sol\";\r\n\r\ncontract Lastpay is usingOraclize{\r\n      struct Candidate {\r\n          uint id;\r\n          string name;\r\n          uint voteCount;\r\n      }\r\n\r\n      struct winner_t {\r\n          address addr;\r\n      }\r\n      // Read/write Candidates\r\n      mapping(uint => Candidate) public candidates;\r\n\r\n      winner_t public winner;\r\n      uint256 public closingTime = 60;\r\n      bytes32 private LastQueryId;\r\n      event LogInfo(string description);\r\n      // Store Candidates Count\r\n      uint public candidatesCount;\r\n      // Store accounts that have voted\r\n      mapping(address => bool) public voters;\r\n\r\n      event votedEvent (\r\n          uint indexed _candidateId\r\n      );\r\n\r\n      // ...\r\n      // Constructor\r\n      constructor() public {\r\n        addCandidate(\"Candidate 1\");\r\n        addCandidate(\"Candidate 2\");\r\n      }\r\n      function payLastAddr ()  public returns (bool) {\r\n          winner.addr.transfer(address(this).balance);\r\n          return true;\r\n      }\r\n\r\n      function payFound() payable public returns(bool success) {\r\n        winner.addr = msg.sender;\r\n\r\n        if (oraclize_getPrice(\"URL\") > address(this).balance) {\r\n            emit LogInfo(\"Oraclize query was NOT sent, please add some ETH to cover for the query fee\");\r\n            return false;\r\n        }\r\n        else {\r\n              emit LogInfo(\"Oraclize query was sent, standing by for the answer..\");\r\n              LastQueryId = oraclize_query(closingTime, \"URL\", \"\");\r\n              return true;\r\n        }\r\n      }\r\n\r\n      function __callback(bytes32 id, string result, bytes proof) public {\r\n          require(msg.sender == oraclize_cbAddress(), \"here 1\");\r\n          if (id == LastQueryId) {\r\n              payLastAddr();\r\n          }\r\n       }\r\n\r\n      function addCandidate (string _name) private {\r\n          candidatesCount ++;\r\n          candidates[candidatesCount] = Candidate(candidatesCount, _name, 0);\r\n      }\r\n      function vote (uint _candidateId) public {\r\n          // require that they haven't voted before\r\n          require(!voters[msg.sender]);\r\n\r\n          // require a valid candidate\r\n          require(_candidateId > 0 && _candidateId <= candidatesCount);\r\n\r\n          // record that voter has voted\r\n          voters[msg.sender] = true;\r\n\r\n          // update candidate vote Count\r\n          candidates[_candidateId].voteCount ++;\r\n\r\n          // trigger voted event\r\n          votedEvent(_candidateId);\r\n      }\r\n}\r\n",
  "sourcePath": "c:\\kfir\\Technion\\048888\\LastPay\\contracts\\Lastpay.sol",
  "compiler": {
    "name": "solc",
    "version": "0.4.24+commit.e67f0147.Emscripten.clang"
  },
  "schemaVersion": "2.0.1",
  "updatedAt": "2018-11-23T06:56:34.244Z"
}